:020000040800F2
:10000000400700204102000849360008DD3400089E
:100010004536000843140008353C00080000000085
:100020000000000000000000000000004F36000843
:1000300055170008000000004D3600085136000832
:100040005B0200085B0200085B0200085B0200081C
:100050005B0200085B0200085B0200085B0200080C
:100060005B0200085B0200085B0200085B020008FC
:100070005B0200085B0200085B0200085B020008EC
:100080005B0200085B0200085B02000879140008AC
:100090004914000859140008691400085B0200089C
:1000A0005B0200085B0200085B0200085B020008BC
:1000B0005B0200085B0200085B0200085B020008AC
:1000C0005B0200085B0200085B0200085B0200089C
:1000D0005B020008153C00085B0200085B02000898
:1000E0005B0200085B0200085B0200085B0200087C
:1000F0005B0200085B0200085B0200085B0200086C
:100100005B0200085B0200085B0200085B0200085B
:100110005B0200085B0200085B0200085B0200084B
:100120005B0200085B0200085B0200085B0200083B
:100130005B0200085B0200085B0200085B0200082B
:100140005B0200085B0200085B0200085B0200081B
:100150005B0200085B0200085B020008253C000807
:100160005B0200085B0200085B0200085B020008FB
:100170005B0200085B0200085B0200080000000050
:100180005B0200085B02000800F002F800F049F88A
:100190000AA090E8000C82448344AAF10107DA45E2
:1001A00001D100F03EF8AFF2090EBAE80F0013F0EB
:1001B000010F18BFFB1A43F00103184758590000FC
:1001C00078590000103A24BF78C878C1FAD852078D
:1001D00024BF30C830C144BF04680C6070470000C1
:1001E0000023002400250026103A28BF78C1FBD840
:1001F000520728BF30C148BF0B607047662905F021
:10020000B983002070471FB505F079FB00F0D8FBDB
:1002100004000020002104F06FFDE0601FBD10B558
:1002200010BD00F0D1FC1146FFF7EDFF04F0E4FA39
:1002300000F0EFFC03B4FFF7F2FF03BC00F032FD67
:100240000948804709480047FEE7FEE7FEE7FEE76A
:10025000FEE7FEE7FEE7FEE7FEE7FEE704480549A6
:10026000054A064B704700000D3700088901000859
:1002700040010020400700204003002040030020F0
:1002800053EA020C00F069802DE9F04B4FF00006B4
:10029000002B1FBFB3FA83F503FA05F424FA05F621
:1002A0005E4012BF1643B2FA82F502FA05F4C5F1B8
:1002B00020051EBF22FA05FC44EA0C04203556EA4C
:1002C000044C4FEA144418BF641C4FF000084FF070
:1002D0000009904271EB030C39D3002919BFB1FA20
:1002E00081F701FA07F6B0FA80F700FA07F6C7F1CE
:1002F00020071EBF20FA07FC46EA0C062037B6FB93
:10030000F4FCA7EB0507103F07F01F0BCBF120060D
:100310000CFA0BFB2CFA06F644BFB3460026202F3E
:10032000A4BF5E464FF0000B5BEA060C08BF4FF01F
:10033000010B19EB0B09ABFB027C48EB0608C01B59
:1003400006FB02CC0BFB03CC71EB0C01C1E70B46A7
:10035000024641464846BDE8F08B13B54FF0000019
:100360004FF00001AFF30080BDE81C407047000073
:100370000FB41CB5084B06AA7B446946009005984B
:1003800000F005FB04460020694600F013FB204600
:100390001CBC5DF814FB0000390600002DE9F04795
:1003A0004FF0000A89460446C0F820A02046E168C4
:1003B0008847002876D0252806D0D4E90121904727
:1003C000206A401C2062F1E7E16820460026884749
:1003D000C4F81CA005460027C4F818A02A2D09D08F
:1003E000284604F0B1F938B304EB8708303DC8F86B
:1003F000185019E059F8041B204604EB870291615C
:10040000E1688847012F054618D1E069002820DA05
:1004100026F020061DE0D8F8180000EB800005EB60
:1004200040003038C8F818002046E1688847054683
:1004300004F08AF90028EED1012F0AD02E2D08D120
:100440002046E16888477F1C0546022F46F02006BB
:10045000C4DBA069002803DA404246F00106A0612F
:10046000F00701D026F010066C2D0AD0682D08D0B8
:100470004C2D39D06A2D35D0742D35D07A2D33D00E
:1004800016E0E1682F4620468847B84205460AD163
:100490006C2F27D04FF48060E168064320468847E0
:1004A000054605E027E06C2F1AD04FF48070064314
:1004B0000DB3A5F14100192802D8203546F4006695
:1004C0004A462946204626604E46FFF797FE80B1F1
:1004D00001280BD0F61D26F0070000F1080965E79A
:1004E0004020E4E78020D7E70020D5E706F10409A3
:1004F0005CE7284661E7206ABDE8F0874FF000021C
:1005000000B5134694469646203922BFA0E80C5009
:10051000A0E80C50B1F12001BFF4F7AF090728BFE4
:10052000A0E80C5048BF0CC05DF804EB890028BF60
:1005300040F8042B08BF704748BF20F8022B11F089
:10054000804F18BF00F8012B704770477047704705
:1005500010B500F039FA006810BD10B5044600F07F
:1005600033FA046010BD70472DE9FF4F0C461E465C
:100570004FF0FF378BB0D2E90001DDF860800A90C0
:100580008A46C1F30A5505B93D46002108464FF099
:100590000000BAF1000F00F4400005DA00EB800023
:1005A0004FF4400101EA50004FEA9059B9F1010FB0
:1005B00000DDB9460A9850EA4A000ED044F61050C1
:1005C000A5F2FF3545432F14B8F1000F1ED0754238
:1005D000291E1EDDC9F100021CE0B8F1010F4FF029
:1005E000000001D0302103E0F24305E02154401C1B
:1005F000B042FBDB30460022002121540B99C1F8A8
:100600000880C1E900200FB0BDE8F08FBD1B6D1C54
:10061000DEE74A4600DA694206A800F05FFA06AB58
:1006200093E8070003AB83E8070050460A9900F0FF
:1006300040FB8DE80700A0F500501F38009003989C
:10064000002D0ADD42F21F014A460844002303A997
:100650000390684600F0A9FD09E0A0F500504A4665
:100660001F38002303A90390684600F0B3FD8DE80E
:1006700007000004000C03D04FF0FF30410800E0F9
:100680001046B8F1000F03D00022009215461EE07C
:10069000751E05D400F09CF9303262556D1EF9D5F7
:1006A000B3460122084302D000227F1C04E02078D8
:1006B000302801D100227F1E002A099784D01DE036
:1006C000112D07DA00F084F9303262556D1C50EAC2
:1006D0000102F5D1084302D00098C8B10EE0002114
:1006E000681E05E0235C625C63542254401E491C72
:1006F0008142F7DBAB46A81B401E0990002004F89E
:100700000B000B98099AC0F80880C0E9002B7AE723
:1007100011264FF0000857E72DE9F04F88460446B0
:10072000D21D22F0070191B0D1E90001CDE90A0103
:1007300003F082FA02460B98C00F01D02D2007E08B
:100740002068810701D52B2002E0202101EAC000AA
:10075000032A099001D0072A05DB034641462046BB
:1007600000F07CF90BE12078800601D5E06900E01B
:100770000620B8F1650F814606D0B8F1660F18D093
:10078000B8F1670F70D131E00020B9F1110F00907E
:1007900001DB112301E009F101030AAA01A90CA858
:1007A000FFF7E2FEDDE90C70002609F10105834642
:1007B00047E001204B4600904FF000470AAA01A9EC
:1007C0000CA8FFF7D1FEDDE90DB00C995D460026BF
:1007D00010B909F101000D18B9EB050003D4C0F1FF
:1007E000FF3609F10105A5EB09002BE0B9F1010F76
:1007F00001DA4FF001090020B9F1110F00904846CD
:1008000001DD112300E003460AAA01A90CA8FFF7A5
:10081000ABFEDDE90C704D460026834620780007CC
:100820000AD4AB4500DA5D4601A8012D04DD41196B
:1008300011F8011C302907D04F4502DA17F1040FD7
:1008400004DA012082460FE06D1EEEE7002F02DC85
:10085000ED1B3E4403E0781CA84200DD7D1CB81B64
:1008600000F1010A4FF000472078000703D4AA45A1
:1008700001DB4FF0FF3A0021B7F1004F0DF14308C3
:100880008DF8431024D002202B23002F01DA7F4261
:100890002D230A21021EA0F1010000DC5FB197FBAD
:1008A000F1FC97FBF1F201FB1C7C17460CF1300CBC
:1008B00008F801CDEEE7A8F10100037021880905D1
:1008C00001D5452100E06521A0F1010800F8011CD7
:1008D00009980FA9A1EB0807FF1D00B101204119DC
:1008E00001EBEA70A1693844081A401EA061207823
:1008F000C00602D42046AFF30080099828B1D4E99D
:1009000001219047206A401C20622078C00622D531
:100910002046AFF300801EE0002E04DBB34502DD6D
:1009200001A8805D00E03020D4E901219047206AD1
:10093000401C2062761CAAF101005FEA000A0AD17D
:1009400000F03EF8C0680168405CD4E9012190479E
:10095000206A401C2062281EA5F10105DCDC07E0AE
:10096000D4E9012118F8010B9047206A401C20624D
:10097000381EA7F10107F3DC2046AFF30080032007
:1009800011B041E601694A1C02610878704700B560
:100990008FB0CDE901310021059105497944CDE9B8
:1009A000031011466846FFF7F9FC0FB000BD0000C8
:1009B000E5FFFFFF0A6802F8010B0A6070470000BC
:1009C000004870470001002000487047E000002008
:1009D00030B5B0F10A024FEA900E71F100034EEA11
:1009E000817EB0EB0E0061EB91014FEA101E4EEAE2
:1009F000017E10EB0E0041EB11114FEA102E4EEA72
:100A0000016E10EB0E0041EB11214FEA104E4EEA41
:100A1000014E10EB0E0041EB1141401841F1000175
:100A20004FEAD00040EA41704FEAD10110EB800557
:100A30004FEA810444EA907444EB01046D1944EBDD
:100A40000404521BA3414FF0000348BF0A3200D5F3
:100A500030BD401C41F1000130BD00002DE9F041E6
:100A60001F46044603260168072A01F4006004DBE0
:100A700008B116A505E016A503E008B115A500E02C
:100A800015A521F010002060A069C01EA0610FB163
:100A9000401EA0612046AFF300804FB1D4E9012190
:100AA00038469047206A401C2062C01C206206E045
:100AB000206AFAE7D4E9012115F8010B9047761E68
:100AC000F8D22046AFF30080BDE8F0814E414E00E1
:100AD0006E616E00494E4600696E66002DE9F04772
:100AE000814616468AB0354878440DC88DE80D0019
:100AF00032487844801C03AC0DC884E80D0041F6F0
:100B00009B300844372190FBF1F290FBF1F5A5F101
:100B1000800501FB12041B3C02D56442012000E069
:100B20000020DFF898A080460027FA44AAF1BE0A08
:100B30000EE0E0070AD03246684607EB4701012382
:100B40000AEB810100F046FB8DE8070064107F1C72
:100B5000002CEED1194F7F44AE3F19E0E80715D0C5
:100B600007EB04100DF1180A90E80E008AE80E0059
:100B7000C068F04201D1981908903246012306A9B5
:100B800003A800F027FB03AB83E807006D10641C8B
:100B9000002DE3D14FF0010332466946B8F1000F52
:100BA00003A802D000F001FB01E000F013FBC9E94B
:100BB0000001C9F808200AB0BDE8F0871050000015
:100BC00000487047E00000207546FFF7F9FFAE4689
:100BD00005006946534620F00700854618B020B549
:100BE000FFF73CFBBDE820404FF000064FF0000748
:100BF0004FF000084FF0000B21F00701AC46ACE8C5
:100C0000C009ACE8C009ACE8C009ACE8C0098D4631
:100C1000704710B50446AFF300802046BDE8104091
:100C2000FFF708BB4FF0013C50F8042B51F8043B90
:100C30009A4221D1A2EB0C03934313EACC1317D1B0
:100C400050F8042B51F8043B9A4215D1A2EB0C0347
:100C5000934313EACC130BD150F8042B51F8043B07
:100C60009A4209D1A2EB0C03934313EACC13DBD0D5
:100C70004FF00000704700BFD01A01BAB1FA81F1FD
:100C800001F0180122FA01F0CB40C1F12001DBB2E2
:100C9000C0B2C01A2CFA01F3D11A914311EAC31160
:100CA000E6D1704701491820ABBEFEE726000200DE
:100CB00070475FEA400C08BF91F0000F4FEA8C23A9
:100CC0004FEAC12243EA51514FEA1C5018BF00F5C8
:100CD000F0404FEA300018BF41F000415FEA6C5C21
:100CE00000F02980BCF1FF3F08BF40F08040704712
:100CF000130C06BF12044FF0100C4FF0000C130E33
:100D000004BF12020CF1080C130F04BF12010CF106
:100D1000040C930F04BF92000CF1020CD30F04BF1C
:100D200052000CF1010C11464FF00002A0F11F001F
:100D3000A0EB0C00704711F0004F08BF704731F076
:100D400000413FF4D5AF0B0C06BF09044FF0100C67
:100D50004FF0000C0B0E04BF09020CF1080C0B0F36
:100D600004BF09010CF1040C8B0F04BF89000CF1C6
:100D7000020CCB0F04BF49000CF1010CCCF1200395
:100D8000A0EB0C0022FA03F302FA0CF241EA030191
:100D900000F10100704720F07F4C80EA030023F04F
:100DA0007F47ACEB070303F57C5300F0004003F1F1
:100DB000FF032DE980494FEA154B09B44FEA14436C
:100DC00025EA0B4E24EA03480FF2042606EB13270C
:100DD00049083E785FEA320203FB0667C7F5000761
:100DE00007FB06F64FEA54374FEAD64606F10206ED
:100DF00007FB066CCCF1005C4FEA1C472CEA074C61
:100E000007FB06F40CFB06F504EB15464FEA9616B5
:100E100034BF00204FF000404FEAD13706FB07FCFB
:100E20004FEA1C4C0CFB0BF7D21B03FB0CF761EBDE
:100E300007010CFB0EF7B0EB074072EB17420CFBFF
:100E400008F734BFA2EB0742B2EB074261EB174150
:100E50004FEA0C444FEA910706FB07FC4FEA1C4C93
:100E60000CFB0BF7B0EBC74072EB573203FB0CF7F0
:100E700034BFA2EBC742B2EBC74261EB57310CFB68
:100E80000EF7B0EBC70072EB57720CFB08F734BFDC
:100E9000A2EBC702B2EBC70261EB5771039F4FEAA7
:100EA000816141EA921104EBCC044FEAD1374FEA59
:100EB000826206FB07FC42EA90124FEA80604FEA2A
:100EC0001C4C0CFB0BF7D21B03FB0CF761EB07016F
:100ED0000CFB0EF7B0EB074072EB17420CFB08F768
:100EE00034BFA2EB0742B2EB074261EB17414FEA76
:100EF0008C554FEA910704EB9C2406FB07FC4FEA54
:100F00001C4C0CFB0BF7B0EBC74072EB573203FBEA
:100F10000CF734BFA2EBC742B2EBC74261EB5731CB
:100F20000CFB0EF7B0EBC70072EB57720CFB08F727
:100F300034BFA2EBC702B2EBC70261EB577115EBEE
:100F40004C254FEA816141EA92114FEA82624FEAF1
:100F5000D13742EA901206FB07FC44F100044FEA45
:100F600080604FEA1C4C0CFB0BF7D21B03FB0CF709
:100F700061EB07010CFB0EF7B0EB074072EB174279
:100F80000CFB08F734BFA2EB0742B2EB074261EB60
:100F9000174115EB1C154FEA813141EA92414FEAA6
:100FA000823242EA90424FEA80304FEA0C7644F1B6
:100FB000000448EA03434EEA0B484FF0000EB2EB40
:100FC000080C71EB030724BF624639464EEB0E0E48
:100FD0004FF0000B0018524149414BEB0B0BB2EBA9
:100FE000080C71EB03077BF1000B24BF6246394606
:100FF0004EEB0E0E4FF0000B0018524149414BEBE7
:101000000B0BB2EB080C71EB03077BF1000B24BF59
:10101000624639464EEB0E0E51EA020718BF46F003
:10102000010616EB0E7655F1000254F1000103D5CE
:10103000BDE88901BDE80088BDE88901BDE8004838
:10104000B619524141EB0101A3F1010370478080C1
:101050007F7E7D7C7B7A7978777676757473727112
:1010600071706F6E6E6D6C6C6B6A6A6968686766CA
:1010700066656464636362616160605F5F5E5E5D5C
:101080005D5C5C5B5B5A5A595958585757565655D0
:1010900055555454535352525251515050504F4F32
:1010A0004F4E4E4D4D4D4C4C4C4B4B4B4A4A4A4982
:1010B00049494848484747474746464645454544C5
:1010C0004444444343434342424242414141002B52
:1010D0009C4630D477002BD01CB54FEA370703B4B9
:1010E0004FF010004FF01001BAF1000F06D0BCF124
:1010F000000FDCBF40F0080040F008014FF0000096
:101100000FBCBDE810400BF1010BBBF1010F08BF94
:101110005FEA170722BF12F1010211F101014FF03E
:10112000004143F1000300F0004043EA0000704733
:10113000F9D35708D0E746EA064613F1400F4FEAC5
:1011400016461FDD13F1200FDFBF16430A460021AC
:1011500020335B42BED0C3F1200746EA064602FABE
:1011600007F74FEA164646EA0706C3F1200722FAB8
:1011700003F201FA07F721FA03F14FF0000342EA04
:101180000702A7E746EA020646EA06464FEA16467F
:1011900046EA0106BCBF46EA0646360C4FF000039D
:1011A0004FF000024FF0000194E72DE9804C9A4681
:1011B000934670B491E8380007C831EA400C48BF44
:1011C00034EA430C03D5FFF7E6FDFFF780FFF0BCE0
:1011D000BDE8008C2DE9804C9A46934670B491E8A6
:1011E000380007C810F0804F08BF13F0804F03D1BC
:1011F00000F005F8FFF76BFFF0BCBDE8008C20F0B5
:101200007F4780EA030023F07F4C07EB0C03A3F534
:101210007C5300F00040A3F1FE0392F0000F00F0B9
:10122000B38095F0000F00F077802DE901494FEA77
:1012300011404FEA144621EA004800FB06FC24EA6C
:10124000064708FB06F607FB08F800FB07F718EB54
:1012500006484CEB164C4FEA124B18EB07484FEA86
:1012600015464CEB174022EA0B4E0BFB06FC25EA19
:1012700006470EFB06F607FB0EFE0BFB07F71EEB01
:10128000064E4CEB164C4FF000061EEB074E4CEB97
:10129000174B18EB0B0840F1000018EB0E0B58EB46
:1012A000000840F100008F1A4FF000013CBFC94315
:1012B000661B14BFB5EB040C00213CBFC943F61BF1
:1012C0004FEA17444EEA8E0E27EA04454FEA1C47C0
:1012D00004FB07622CEA074C05FB07F70CFB05F63D
:1012E00004FB0CFC16EB074642EB174216EB0C46D0
:1012F00042EB1C421BEB060658EB0202414146EA58
:101300009E0601D5BDE80189B619524141EB0101A4
:10131000A3F10103BDE801894FEA14454FEA1147E3
:1013200024EA054621EA074C05FB07F406FB07F70C
:101330000CFB06F105FB0CFC11EB074144EB1744D9
:101340004FEA124711EB0C4144EB1C4422EA074CD4
:1013500005FB07F206FB07F70CFB06F605FB0CFC8A
:1013600016EB074642EB174216EB0C4642EB1C45C8
:101370006A1854F1000148BF7047B619524141EB59
:101380000101A3F10103704795F0000F37D04FEA38
:1013900011424FEA144721EA024624EA074C02FBB5
:1013A00007F106FB07F70CFB06F402FB0CFC14EB41
:1013B000074441EB17414FEA154714EB0C4441EB4E
:1013C0001C4125EA074C02FB07F506FB07F70CFB5F
:1013D00006F602FB0CFC16EB074645EB174516EB31
:1013E0000C4645EB1C42121951F1000148BF7047F1
:1013F000B619524141EB0101A3F1010370474FEAD5
:1014000014454FEA114724EA054621EA074C05FB3B
:1014100007F106FB07F70CFB06F24FF0000605FB91
:101420000CFC12EB074241EB174112EB0C4251EB63
:101430001C4148BF7047921841EB0101A3F1010321
:10144000704700BFFEE7000010B5024800F071FCD5
:1014500010BD00002800002010B5024800F069FC13
:1014600010BD00002800002010B5024800F061FC0B
:1014700010BD00002800002010B5024800F059FC03
:1014800010BD000028000020F0B5A3B004460D46B2
:1014900001F048F80746206C381A64282AD994EDE0
:1014A000020B8DED080B94ED000B8DED060B94ED0A
:1014B0000A0B8DED040B94ED080B8DED020B94EDF2
:1014C0000E0B8DED000B94ED0C1BB0EE410AF0EE0F
:1014D000610A53EC102B08A10AA8FEF749FF064643
:1014E000B2B24FF47A730AA9284601F097FF01F0CF
:1014F00019F8206423B0F0BD256C662C256C662C91
:10150000256C662C256C662C256C662C256C660A71
:101510000000000070B58AB006460D46288930B13B
:10152000012806D0022807D003280BD107E00024A9
:101530000AE04FF4807407E04FF4007404E04FF4C5
:10154000407401E0002400BF00BF6878204403908D
:1015500000200490059006900820079000208DF848
:101560002000287801280AD10EA103C9CDE9010184
:1015700009AB01AA03A9304600F0A4FA0FE02878CD
:1015800050B90AA103C9CDE9010109AB01AA03A918
:10159000304600F097FA02E001200AB070BD00204A
:1015A000FBE70000FFFFFFFFFFFFFFFCFFFFFFFF68
:1015B000FFFFFFFD2DE9F04F89B083460C462089DF
:1015C00030B1012806D0022807D003280BD107E04C
:1015D00000250AE04FF4807507E04FF4007504E041
:1015E0004FF4407501E0002500BF00BF607828443B
:1015F000029000200390049005900820069000209F
:101600008DF81C002089002865D1D4ED030AB0EEC6
:10161000600A1020B2EE091AFAEE090A03F0AFF8D8
:101620000646D4ED040AB0EE600A0C209FED431A82
:10163000DFED430A03F0A3F80746D4ED050AB0EE48
:10164000600A0C209FED3F1ADFED3F0A03F097F888
:101650008046D4ED060AB0EE600A0C20B1EE041A02
:10166000DFED390A03F08BF88146D4ED070AB0EEBE
:10167000600A0C209FED351ADFED350A03F07FF884
:10168000824630128DF80000F0B28DF80100C7F3E9
:1016900007108DF802003807000E40EA28208DF868
:1016A000030008F0FF008DF80400C9F307108DF85F
:1016B00005004FEA0970000E40EA2A208DF8060066
:1016C0000AF0FF008DF8070008AB6A4602A95846E9
:1016D00000F0F8F92FE0208901280AD1E068009095
:1016E0002069019008AB6A4602A9584600F0EAF961
:1016F00021E02089022808D12069009008AB6A46C1
:1017000002A9584600F0DEF915E0208903280ED121
:10171000E0680090608CADF80400208CADF8060005
:1017200008AB6A4602A9584600F0CCF903E0012054
:1017300009B0BDE8F08F0020FAE700000000344255
:10174000000034C20000FA430000000000004842DC
:10175000000048C2704772B600BFFEE710B52DED1D
:101760000A8B044694ED022BB0EE420AF0EE620AB8
:1017700094ED022BB0EE421AF0EE621A53EC102BED
:1017800051EC110B03F054FD41EC1A0B94ED002BBE
:10179000B0EE420AF0EE620A94ED002BB0EE421A6F
:1017A000F0EE621A53EC102B51EC110B03F040FDDC
:1017B00041EC1B0B53EC1A2B03F0F2FA41EC190B22
:1017C000B0EE490AF0EE690A02F0D1FE84ED040B96
:1017D00094ED041BB0EE410AF0EE610A9FEDA01BF0
:1017E00053EC112B51EC100B03F020FE14D39FEDA2
:1017F0009E0B02F065FEB0EE409AF0EE609A94ED1A
:10180000041BB0EE410AF0EE610A53EC102B51ECD0
:10181000190B03F00BFE03D20120BDEC0A8B10BDA7
:1018200094ED041BB0EE410AF0EE610A53EC102B6C
:101830009FED8F1B51EC110B03F0FAFC41EC190BDF
:1018400094ED042BB0EE420AF0EE620A94ED042B04
:10185000B0EE421AF0EE621A53EC102B51EC110B61
:1018600003F0E6FC41EC1C0B9FED830B53EC102BBB
:1018700003F096FA41EC1B0B9FED810B53EC102B00
:1018800003F0E2FE41EC1A0B53EC192B03F03CFB86
:1018900041EC180B94ED002BB0EE421AF0EE621AF8
:1018A00094ED022BB0EE420AF0EE620A02F010FD57
:1018B000B0EE409AF0EE609AB0EE480AF0EE680A98
:1018C00002F0EEF9B0EE40AAF0EE60AA53EC192B4C
:1018D00051EC1A0B03F064FAC4E9080194ED002BF3
:1018E000B0EE421AF0EE621A94ED022BB0EE420A0C
:1018F000F0EE620A02F0ECFCB0EE409AF0EE609A74
:10190000B0EE480AF0EE680A02F0CAF9B0EE40BA4A
:10191000F0EE60BA51EC1B0B03F004FA41EC1A0B29
:1019200053EC192B03F03CFAC4E90A0194ED080BBF
:1019300084ED0C0B94ED0A1BB0EE410AF0EE610A47
:1019400053EC102B9FED501B51EC110B03F07CFE60
:10195000C4E90E0194ED0C1BB0EE410AF0EE610AF1
:101960009FED4B1B53EC112B51EC100B03F05EFD64
:1019700001D2012051E794ED0C1BB0EE410AF0EECC
:10198000610A9FED451B53EC112B51EC100B03F03A
:1019900013FC01D2012040E794ED0E1BB0EE410A8A
:1019A000F0EE610A9FED3A1B53EC112B51EC100B3A
:1019B00003F03CFD01D201202FE794ED0E1BB0EEA9
:1019C000410AF0EE610A9FED341B53EC112B51ECF0
:1019D000100B03F0F1FB01D201201EE7207E01284D
:1019E00017D194ED0C1BB0EE410AF0EE610A51ECF8
:1019F000100B03F0A3F9606594ED0E1BB0EE410AE5
:101A0000F0EE610A51EC100B03F098F994210851A3
:101A100023E0207EF8B994ED0C1BB0EE410AF0EE05
:101A2000610A51EC100B03F07DF941EC190B03F046
:101A300085F9606594ED0E1BB0EE410AF0EE610A87
:101A400051EC100B03F06EF941EC190B03F076F931
:101A50009421085101E00120DFE60020DDE60000CE
:101A6000343333333333CB3FC2F5285C8FC2A53FC9
:101A7000C3F5285C8FC2C53FD7E76A2BF6977D3F39
:101A800068226C787AA5903F4AD8124DFB2109C094
:101A90009A9999999999E93F000000000000F0BFD8
:101AA00070B504460D462046FFF758FE04F1480184
:101AB0002846FFF77FFD04F188012846FFF77AFDED
:101AC000002070BDF0B504460D461E4694F8207007
:101AD00020688368A86800B900E000BF012F01D02A
:101AE000022F7DD103F0806030B903F0006018B997
:101AF00003F0805000287ED0C3F3016101208840AC
:101B00003060A86860B9B5F800C0E86840EA4C5C8D
:101B1000206800F5C07000EB0110C0F800C00FE0B5
:101B2000D5E901C040EACC00D5F80CC040EA0C0071
:101B3000D4F800C00CF5C07C0CEB011CCCF8000004
:101B4000D5F810C0206800F5C07000EB0110C0F897
:101B500004C0287D01280ED1206800F5C07000EB7C
:101B60000110406840F4807C206800F5C07000EBF4
:101B70000110C0F804C0D079000692F806C040EA0F
:101B80000C4092F805C040EA0C2092F804C040EAEC
:101B90000C00D4F800C00CF5C07C0CEB011CCCF898
:101BA0000C00D078000692F802C040EA0C4092F88F
:101BB00001C040EA0C2092F800C040EA0C00D4F8C2
:101BC00000C00CF5C07C0CEB011CCCF808002068B0
:101BD00000F5C07000EB0110006840F0010C01E05E
:101BE0000FE008E0206800F5C07000EB0110C0F8BD
:101BF00000C00020F0BD606A40F400106062012067
:101C0000F8E7606A40F4802060620120F2E700009B
:101C1000F0B504460A4694F82050012D01D0022D5B
:101C20007ED1424901F50071086840F0010008606A
:101C3000086820F47C5008600868566A40EA06206C
:101C40000860107D00F01F06012000FA06F3C86945
:101C50009843C861A1F50071D069C8B9D1F80C02E8
:101C60009843C1F80C02908880B2968940EA0646F3
:101C700001F51070576940F83760108880B21689F6
:101C800040EA064601F51070576900EBC700466050
:101C9000D069012819D1D1F80C021843C1F80C02FF
:101CA000908880B2168840EA064601F510705769A0
:101CB00040F83760908980B2168940EA064601F5FF
:101CC0001070576900EBC7004660906928B9D1F8D9
:101CD00004029843C1F8040204E0D1F80402184356
:101CE000C1F80402106928B9D1F814029843C1F868
:101CF000140204E0D1F814021843C1F81402106A67
:101D0000012804D1D1F81C021843C1F81C02D1F8F3
:101D1000000220F00100C1F800020020F0BDFFE742
:101D2000606A40F4802060620120F7E700640040B0
:101D300070472DE9F05F0446002520684669206859
:101D4000D0F80490206887682068D0F80CA020683C
:101D5000D0F810B02068D0F8188006F001000028F4
:101D600055D007F00100C0B101202168886007F05C
:101D7000020018B1204600F056FA0EE007F0040009
:101D800010B145F4006508E007F0080010B145F413
:101D9000805502E0204600F045FA07F48070C8B193
:101DA0004FF480702168886007F4007018B12046F5
:101DB00000F03BFA0EE007F4806010B145F40055E6
:101DC00008E007F4006010B145F4804502E02046C9
:101DD00000F02AFA07F48030C8B14FF4803021684F
:101DE000886007F4003018B1204600F020FA0EE0B9
:101DF00007F4802010B145F4004508E007F4002006
:101E000010B145F4803502E0204600F00FFA06F0EC
:101E1000080038B10AF0100020B145F40075102018
:101E20002168C86006F0040040B10AF0080028B13B
:101E300008202168C860204600F0C0F906F00200C2
:101E400038B12068C06800F0030010B1204600F0EF
:101E5000B6F906F0400038B10BF0100020B145F49F
:101E6000806510202168086106F0200040B10BF069
:101E7000080028B1082021680861204600F0A0F978
:101E800006F0100038B12068006900F0030010B1BE
:101E9000204600F096F906F4003040B109F0100039
:101EA00028B1102021684860204600F08BF906F424
:101EB000803040B109F0080028B10820216848604E
:101EC000204600F0B5F906F4004088B309F004009C
:101ED00078B306F4807020B108F0010008B145F035
:101EE000010506F4007020B108F0020008B145F0C9
:101EF000020506F4806020B108F0040008B145F046
:101F0000040506F40060A0B108F0700088B108F084
:101F10007000402817D006DC10280BD020280CD0E9
:101F2000302819D10CE0502810D0602814D110E0CE
:101F30001DE019E045F008050FE045F010050CE044
:101F400045F0200509E045F0400506E045F0800534
:101F500003E045F4807500E000BF00BF20688069A1
:101F600020F07000216888610420216848602DB14C
:101F7000606A284360622046FFF7DAFEBDE8F09F02
:101F800070B504460CB9012070BD94F8200010B95A
:101F9000204600F0AFF82068006840F0010021689A
:101FA000086000F0BFFA05460DE000F0BBFA401BE8
:101FB0000A2808D9606A40F400306062052084F87D
:101FC00020000120E0E72068406800F001000028C0
:101FD000EBD02068006820F002002168086000F063
:101FE000A1FA05460DE000F09DFA401B0A2808D929
:101FF000606A40F400306062052084F8200001200F
:10200000C2E72068406800F002000028EBD1207E83
:10201000012806D12068006840F08000216808602F
:1020200005E02068006820F0800021680860607E7C
:10203000012806D12068006840F04000216808604F
:1020400005E02068006820F0400021680860A07E5C
:10205000012806D12068006840F02000216808604F
:1020600005E02068006820F0200021680860E07E1C
:10207000012806D12068006820F01000216808605F
:1020800005E02068006840F0100021680860207FAB
:10209000012806D12068006840F008002168086027
:1020A00005E02068006820F0080021680860607F73
:1020B000012806D12068006840F00400216808600B
:1020C00005E02068006820F0040021680860D4E979
:1020D0000201084321690843616908436168491E98
:1020E00008432168C86100206062012084F8200054
:1020F000002049E710B586B00446142101A8FEF778
:10210000FDF92B49206888424FD100BF0020009084
:102110002848006840F000702649086008460068BA
:1021200000F00070009000BF00BF00BF00200090D2
:1021300020481038006840F008001E491039086037
:102140000846006800F00800009000BF00BF0320B0
:1021500001900220029000200390032004900920A7
:10216000059001A9144800F0E3F800220121132092
:1021700000F066FA132000F04FFA0022012114202B
:1021800000F05EFA142000F047FA00220121152029
:1021900000F056FA152000F03FFA00220121162027
:1021A00000F04EFA162000F037FA06B010BD00001D
:1021B0000064004040380240000C02407047704705
:1021C00070477047704770B5044694F820000128A6
:1021D00022D1022084F820002068006820F001004D
:1021E0002168086000F09EF905460DE000F09AF9BC
:1021F000401B0A2808D9606A40F40030606205205C
:1022000084F82000012070BD2068406800F00100C3
:102210000028EBD16062F6E7606A40F4002060625B
:102220000120F0E77047704770477047704770476C
:10223000704770B50446A56D00F074F9064694F831
:102240003500022808D08020606500BF002084F897
:10225000340000BF012070BD2068006820F0160027
:10226000216808602068406920F08000216848618A
:10227000206C08B9A06C28B12068006820F0080024
:10228000216808602068006820F00100216808606B
:1022900010E000F047F9801B05280BD9202060656D
:1022A000032084F8350000BF002084F8340000BF0C
:1022B0000320D0E72068006800F001000028E8D182
:1022C00094F85C103F208840A860012084F8350015
:1022D00000BF002084F8340000BF00BFBBE7014608
:1022E00091F83500022803D080204865012070470E
:1022F000052081F835000868006820F001000A68B0
:1023000010600020F3E7000070B5044600F00AF901
:1023100006462546681C10B104480078054400BFF5
:1023200000F000F9801BA842FAD370BD1400002011
:10233000F8B502460B460025002400200021D6E017
:10234000012606FA01F51E6806EA0504AC4274D1BE
:102350001E7906F00306012E04D01E7906F003064E
:10236000022E13D190684F000326BE40B0434F00A9
:10237000DE68BE4030439060506801268E40B04316
:102380001E79C6F300168E40304350601E7906F069
:102390000306032E09D0D0684F000326BE40B04389
:1023A0004F009E68BE403043D0601E7906F00306A1
:1023B000022E13D1CF0802F1200656F827004E074F
:1023C000F70E0F26BE40B0434F07FF0E1E69BE40FA
:1023D0003043CF0802F1200646F8270010684F006E
:1023E0000326BE40B0431E7906F003064F00BE40F0
:1023F000304310605E6806F44036002E76D000BF91
:10240000002600963C4E366846F480463A4F3E60C1
:102410003E46366806F48046009600BF00BF374E41
:102420008F0856F827008E07370F0F26BE40B0439F
:10243000334EB24202D1002624E057E0314EB24280
:1024400001D101261EE0304EB24201D1022619E030
:102450002E4EB24201D1032614E02D4EB24201D1DC
:1024600004260FE02B4EB24201D105260AE02A4E87
:10247000B24201D1062605E0284EB24201D107261C
:1024800000E008268F073F0FBE4030431B4E8F08E9
:1024900046F82700224E3068A0435E6806F4801696
:1024A00006B120431E4E3060361D3068A0435E6882
:1024B00006F4001606B12043194E361D3060184E42
:1024C000361F3068A0435E6806F4003606B120432C
:1024D000134E361F3060361F3068A0435E6806F426
:1024E000803606B120430E4E083E3060491C10294C
:1024F000FFF426AFF8BD0000443802400838014020
:10250000000002400004024000080240000C0240AB
:10251000001002400014024000180240001C02405B
:10252000083C014001480068704700000C00002092
:102530000348006803490978084401490860704766
:102540000C0000201400002010B50D48006840F475
:1025500000700B4908600846006840F4806008601D
:102560000846006840F480700860032000F0A6F878
:102570000F2000F007F800F02BF8002010BD00003D
:10258000003C024070B504460E4800784FF47A7162
:10259000B1FBF0F00C490968B1FBF0F5284600F0FA
:1025A0002FFC08B1012070BD102C07D2002221465B
:1025B000501E00F045F80548046001E00120F2E7F4
:1025C0000020F0E714000020180000201000002078
:1025D00008B500BF002000900E48006840F480401D
:1025E0000C4908600846006800F48040009000BF75
:1025F00000BF00BF00200090081F006840F080501E
:10260000091F08600846006800F08050009000BF75
:1026100000BF08BD443802400146084600280DDBD3
:1026200000BF00BF00F01F0301229A4043099B0036
:1026300003F1E023C3F8002100BF00BF00BF7047D3
:102640002DE9F05F80460D461646002701F00CFB91
:10265000074639462A46334601F00700C0F1070A0B
:10266000BAF1040F02D94FF0040A01E0C0F1070AE1
:10267000D14600F1040ABAF1070F02D24FF0000A66
:1026800001E0A0F1030AD4464FF0010A0AFA09FA60
:10269000AAF1010A0AEA020A0AFA0CFA4FF0010B3F
:1026A0000BFA0CFBABF1010B0BEA030B4AEA0B0430
:1026B0002146404601F0E0FABDE8F09F00BF00F07F
:1026C0000702064B19684FF6FF031940044B0B43F2
:1026D00043EA0221014B196000BF70470CED00E096
:1026E0000000FA0570B504460D460CB9012070BD16
:1026F0005848006800F00700A84209D255490D70FB
:102700000846006800F00700A84201D00120EEE76B
:10271000207800F0020002281DD1207800F004008B
:10272000042805D14C48006840F4E0504A4908604C
:10273000207800F00800082805D14748006840F4D8
:102740006040454908604448006820F0F000A168F6
:10275000084341490860207800F00100A8B3606890
:10276000012807D13C4808380068C0F34040B8B998
:102770000120BCE76068022802D06068032807D106
:10278000354808380068C0F3406048B90120AEE71A
:10279000314808380068C0F3400008B90120A6E7B6
:1027A0002D48006820F00300616808432A4908604A
:1027B000FFF7B8FE064609E0FFF7B4FE801B41F2C2
:1027C0008831884202D9032091E707E02248006857
:1027D00000F00C006168B0EB810FEDD11D4800687E
:1027E00000F00700A84209D91A490D700846006890
:1027F00000F00700A84201D0012078E7207800F01F
:102800000400042807D11448006820F4E050E1686F
:10281000084311490860207800F00800082808D112
:102820000D48006820F46040216940EAC1000A496F
:10283000086000F03FF808490968C1F30311074A2E
:10284000515CC8400649086006480068FFF79AFED8
:1028500000204CE7003C024008380240785900084C
:102860001800002010000020014800687047000098
:102870001800002000B5FFF7F7FF04490968C1F30D
:102880008221034A515CC84000BD00000838024064
:102890008859000800B5FFF7E7FF04490968C1F34C
:1028A0004231034A515CC84000BD00000838024074
:1028B000885900082DE9F047002400250026A1468C
:1028C0002548006800F00C0020B1042805D0082835
:1028D0003AD105E0DFF8849039E0DFF8849036E003
:1028E0001D48001F006800F03F041B48001F0068DF
:1028F00000F4800078B11A481749091F0968C1F32C
:102900008811A0FB01700146224600233846FDF7DE
:10291000B7FC05460EE011480F49091F0968C1F3CD
:102920008811A0FB01700146224600233846FDF7BE
:10293000A7FC05460848001F0068C0F30140401C82
:102940004600B5FBF6F902E0DFF8109000BF00BFCB
:102950004846BDE8F0870000083802400024F40033
:10296000001BB700F8B504460CB90120F8BD20786B
:1029700000F00100002874D0F948006800F00C0055
:1029800004280DD0F648006800F00C00082813D188
:10299000F348001F006800F48000B0F5800F0BD1F1
:1029A000EF4808380068C0F34040002859D06068FC
:1029B000002856D10120D9E700BF6068B0F5803FFC
:1029C00008D1E7480838006840F48030E449083905
:1029D00008601EE06068B0F5A02F0DD1E04808380F
:1029E000006840F48020DE49083908600846006825
:1029F00040F4803008600CE0D9480838006820F4C2
:102A00008030D749083908600846006820F48020E3
:102A1000086000BF606890B1FFF784FD054606E0DE
:102A2000FFF780FD401B642801D903209EE7CC48B6
:102A300008380068C0F340400028F1D011E0FFF7EB
:102A400071FD054606E0FFF76DFD401B642801D9C6
:102A500003208BE7C24808380068C0F340400028D4
:102A6000F1D1207800F0020002285FD1BC48006854
:102A700000F00C0058B1BA48006800F00C000828BB
:102A80001CD1B748001F006800F48000B0B9B448FA
:102A900008380068C0F3400020B1E068012801D088
:102AA000012063E7AE480838006820F0F80021698B
:102AB00040EAC100AA490839086037E0E06800B37D
:102AC0000120A8490860FFF72DFD054606E0FFF745
:102AD00029FD401B022801D9032047E7A0480838F8
:102AE0000068C0F340000028F1D09D480838006815
:102AF00020F0F800216940EAC100994908390860CE
:102B000014E0002097490860FFF70CFD054606E039
:102B1000FFF708FD401B022801D9032026E7904853
:102B200008380068C0F340000028F1D1207800F098
:102B3000080008282CD16069A8B101208A490860E2
:102B4000FFF7F0FC054606E0FFF7ECFC401B02280F
:102B500001D903200AE782486C300068C0F34000C6
:102B60000028F1D014E000207F490860FFF7DAFC6C
:102B7000054606E0FFF7D6FC401B022801D90320DA
:102B8000F4E677486C300068C0F340000028F1D1CB
:102B9000207800F00400042870D1002770483830F5
:102BA000006800F0805090B900BF002000906C4891
:102BB0003830006840F08050694938310860084674
:102BC000006800F08050009000BF00BF01276748F8
:102BD000006800F48070B0B96448006840F4807008
:102BE00062490860FFF79EFC054606E0FFF79AFC85
:102BF000401B022801D90320B8E65C48006800F4B5
:102C000080700028F2D000BFA068012808D1544885
:102C10006830006840F001005149683108601DE0EB
:102C2000A06805280DD14E486830006840F00400C7
:102C30004B49683108600846006840F001000860B0
:102C40000CE047486830006820F0010044496831D2
:102C500008600846006820F00400086000BFA06813
:102C6000A8B1FFF75FFC054609E0FFF75BFC401BDE
:102C700041F28831884202D9032077E626E03848BD
:102C800068300068C0F340000028EED013E0FFF782
:102C900049FC054608E0FFF745FC401B41F288313E
:102CA000884201D9032061E62D4868300068C0F3EE
:102CB00040000028EFD1012F07D1294838300068A3
:102CC00020F0805026493831086000BFA0690028F4
:102CD00045D02348006800F00C0008285DD0A069AA
:102CE000022845D100201F490866FFF71BFC054656
:102CF00006E0FFF717FC401B022801D9032035E648
:102D0000174808380068C0F340600028F1D1D4E9C2
:102D100007010843616A40EA81110122A06AC2EBFF
:102D2000500041EA00412C20005D41EA00600C495E
:102D3000091F086001200B490866FFF7F3FB0546F1
:102D400006E0FFF7EFFB401B022801D903200DE648
:102D5000034808380068C0F340600028F1D049E01B
:102D60000838024000004742800E47420070004091
:102D7000002021490866FFF7D5FB054606E0FFF76E
:102D8000D1FB401B022801D90320EFE51B48006856
:102D9000C0F340600028F2D12CE0A069012800D1E6
:102DA000E4E51648001D0668A069012820D006F455
:102DB0008001E06981421BD106F03F01206A814217
:102DC00016D147F6C0703040616AB0EB811F0FD159
:102DD00006F440310122A06AC2EB5000B1EB004F73
:102DE00006D106F070612C20005DB1EB006F01D0C0
:102DF0000120BBE50020B9E5000047420038024051
:102E000070B504462546681EB0F1807F01D30120CD
:102E10000FE0681E4FF0E02148610F214FF0FF30B6
:102E200000F02AFF00204FF0E021886107200861B0
:102E3000002070BD704770472DE9F84F04462068A8
:102E400005682068C668206847694FF00009CA46CF
:102E500005F00F09B9F1000F0AD105F0200038B1D3
:102E600006F0200020B1204600F0A9FCBDE8F88F54
:102E7000B9F1000F7CD007F0010018B906F490708A
:102E8000002875D005F0010030B106F4807018B14B
:102E9000606C40F00100606405F0040030B107F0A0
:102EA000010018B1606C40F00200606405F002009F
:102EB00030B107F0010018B1606C40F004006064AC
:102EC00005F0080048B106F0200010B907F0010035
:102ED00018B1606C40F008006064606C002846D057
:102EE00005F0200028B106F0200010B1204600F0C7
:102EF00066FC20684069C0F3801A606C00F008002E
:102F000010B9BAF1000F2DD0204600F012FC206855
:102F1000406900F04000402820D100BF00BF216878
:102F2000143151E8001F21F040002168143141E8BC
:102F30000002002AF3D100BFE06B50B17F48E16B83
:102F40000865E06BFFF7CBF988B1E06B016D88474E
:102F50000DE02046FFF76FFF09E009E02046FFF78C
:102F60006AFF04E02046FFF766FF002060647DE70B
:102F7000206B012878D105F01000002874D006F0ED
:102F800010000028FAD000BF0020009020680068E0
:102F9000009020684068009000BF00BF2068406932
:102FA00000F04000402870D1E06B006840681FFAD4
:102FB00080F8B8F1000F58D0A08D404555DDA4F839
:102FC0002E80E06BC069B0F5807F43D000BF00BFAA
:102FD00021680C3151E8001F21F4807021680C3108
:102FE00041E80002002AF3D100BF00BF00BF216802
:102FF000143151E8001F21F001002168143141E82B
:103000000002002AF3D100BF00BF00BF21681431C5
:1030100051E8001F21F040002168143141E800020E
:10302000002AF3D100BF202084F842000020206352
:1030300000BF00BF21680C3151E8001F21F01000D3
:1030400021680C3141E80002002AF3D100BFE06B97
:10305000FFF7EFF802206063A08DE28D801A81B245
:103060002046FFF7E7FE0EE052E0A08D40450AD172
:10307000E06BC069B0F5807F05D102206063A18D4F
:103080002046FFF7D7FEF1E6FFE7A08DE18D401A5D
:103090001FFA80F8E08DD0B3B8F1000F37D000BF31
:1030A00000BF21680C3151E8001F21F490702168A5
:1030B0000C3141E80002002AF3D100BF00BF00BF7D
:1030C0002168143151E8001F21F0010021681431FA
:1030D00041E80002002AF3D100BF202084F842001A
:1030E0000020206300BF00BF21680C3151E8001FA1
:1030F00021F0100021680C3141E80002002AF3D1D0
:1031000000BF0220606341462046FFF793FEADE614
:1031100005F0800030B106F0800018B1204600F0C4
:1031200003FDA3E605F0400030B106F0400018B101
:10313000204600F034FB99E600BF97E621370008EF
:1031400010B504460CB9012010BDA06900B100E023
:1031500000BF94F8410028B9002084F840002046C0
:1031600000F02AF8242084F841002068C06820F488
:1031700000502168C860204600F0A0FB206800696C
:1031800020F49040216808612068406920F02A00FE
:10319000216848612068C06840F400502168C86018
:1031A00000206064202084F8410084F84200002060
:1031B000606300BFC8E7000010B586B00446142164
:1031C00001A8FDF79BF93E492068884239D100BF2C
:1031D000002000903B48006840F01000394908602A
:1031E0000846006800F01000009000BF00BF00BF5C
:1031F0000020009033481438006840F00100314945
:10320000143908600846006800F00100009000BF13
:1032100000BF4FF4C0600190022002900020039094
:10322000032004900720059001A92748FFF780F8A4
:10323000002211462520FFF703FA2520FFF7ECF9BD
:103240003BE022492068884237D100BF002000902F
:103250001C48006840F020001A49086008460068D1
:1032600000F02000009000BF00BF00BF00200090D1
:1032700014481438006840F00400124914390860FA
:103280000846006800F00400009000BF00BFC020A6
:103290000190022002900020039003200490082057
:1032A000059001A90A48FFF743F8002201214720B1
:1032B000FFF7C6F94720FFF7AFF906B010BD0000D1
:1032C0000010014044380240000002400014014058
:1032D0000008024070B504460D46164694F84200B8
:1032E00020280BD105B10EB9012070BD002020634C
:1032F00032462946204600F0F7FBF6E70220F4E7C5
:1033000010B504463C492068884273D13B48007898
:1033100020B101280DD0022860D131E03848007872
:10332000A52805D1012035490870002035490870CD
:103330005AE033480178334802780078401C314B1A
:1033400018703148815418460078092817D1002197
:10335000002004E02C4A125C0A44D1B2401C082828
:10336000F8DB2948007A884203D10220234A1070F2
:1033700004E00020214A1070224A107000BF33E0A0
:103380001F4800785A2823D11F4A12781E4B5B78B9
:1033900042EA03221C4B9B7842EA03421A4BDB7839
:1033A00042EA0360184A1279174B5B7942EA03221A
:1033B000154B9B7942EA0342134BDB7942EA0361E6
:1033C000124A1060124A11600122124B1A7000BF9B
:1033D00000200A4908700B49087005E000200749E1
:1033E00008700849087000BF00BF012204490A485C
:1033F000FFF770FF10BD0000001001400A00002020
:103400000B000020090000201C000020000000200C
:103410000400002008000020500000202DE9F84F93
:1034200004460E46174699464FF0000A94F84100AC
:10343000202850D106B117B90120BDE8F88F00202F
:103440006064212084F84100FFF76CF88246A7846D
:10345000E784A068B0F5805F04D1206910B9002529
:10346000B04602E035464FF000081EE05346002209
:1034700080212046CDF8009000F086FB20B120206E
:1034800084F841000320D8E745B9B8F80000C0F33C
:1034900008002168486008F1020803E028782168E4
:1034A00048606D1CE08C401EE084E08C0028DDD17B
:1034B0005346002240212046CDF8009000F064FBE6
:1034C00020B1202084F841000320B6E7202084F8B2
:1034D00041000020B1E70220AFE7704700BFFEE7E0
:1034E00000B58BB0184819490860062048600021D3
:1034F00016488160C1604FF4802101610021416163
:10350000017641768176C17601774177FEF738FD05
:1035100008B1FEF720F900200690079001200890DE
:1035200000200190029003900490059001200990E2
:103530000E200A9001A90548FEF76AFB08B1FEF7C4
:103540000AF90BB000BD0000006400402800002014
:1035500008B500BF002000901D48006840F0010041
:103560001B4908600846006800F00100009000BF99
:1035700000BF00BF002000900846006840F008002F
:1035800008600846006800F00800009000BF00BF17
:1035900000BF002000900846006840F080000860EE
:1035A0000846006800F08000009000BF00BF00BF28
:1035B000002000900846006840F0040008600846BB
:1035C000006800F00400009000BF00BF08BD0000CC
:1035D0003038024010B50B480B4908604FF41650C4
:1035E0004860002108488160C16001610C2141618F
:1035F00000218161C161FFF7A3FD08B1FEF7ABF8BF
:1036000010BD0000001001405000002010B50B4814
:103610000B4908604FF4E1304860002108488160A0
:10362000C16001610C21416100218161C161FFF72D
:1036300087FD08B1FEF78FF810BD000000140140AF
:103640009800002000BFFEE700BFFEE7704770470C
:1036500010B5FEF76DFF10BD00B593B0302107A87F
:10366000FCF74CFF142102A8FCF748FF00BF002024
:1036700001902448006840F08050224908600846C4
:10368000006800F08050019000BF00BF00BF002024
:1036900001901D48006840F480401B4908600846BE
:1036A000006800F48040019000BF00BF0120079037
:1036B0000004089002200D9041050E9106210F9103
:1036C000A8211091022111910421129107A8FFF75E
:1036D00049F908B1FEF73FF80F200290022003904D
:1036E000002004904FF4A05005904FF480500690B5
:1036F000052102A8FEF7F6FF08B1FEF72CF813B07B
:1037000000BD0000403802400070004003480068DF
:1037100040F47000014908607047000088ED00E047
:1037200070B50446A56B0020E8852846FFF783FBAB
:1037300070BD00BF00BF02680C3252E8002F22F4B7
:10374000907102680C3242E80013002BF3D100BFE5
:1037500000BF00BF0268143252E8002F22F00101BE
:103760000268143242E80013002BF3D100BF016B52
:1037700001290ED100BF00BF02680C3252E8002FB1
:1037800022F0100102680C3242E80013002BF3D142
:1037900000BF202180F8421000210163704710B55E
:1037A00004462068C06820F040002168C8602020DE
:1037B00084F841002046FFF790FE002010BDF8B5C8
:1037C00004460025002694F84200222873D1A06800
:1037D000B0F5805F0BD1206948B9A66A20684068BF
:1037E000C0F308003080A06A801CA06214E0A56AC3
:1037F000A068B0F5805F03D0A06828B9206918B927
:1038000020684068287004E02068406800F07F006D
:103810002870A06A401CA062E08D401E80B2E08546
:10382000002846D12068C06820F020002168C860C8
:103830002068C06820F480702168C86020684069F2
:1038400020F0010021684861202084F84200002017
:103850006063206B012826D10020206300BF00BFD9
:1038600021680C3151E8001F21F0100021680C3153
:1038700041E80002002AF3D100BF2068006800F090
:10388000100010280AD100BF0020009020680068B6
:10389000009020684068009000BF00BFA18D2046C6
:1038A000FFF7C8FA02E02046FFF72AFD0020F8BD26
:1038B00001E00020FBE70220F9E700002DE9F84FC6
:1038C00004462068006920F44050E16808432168FC
:1038D00008612169A068084361690843E1690843F8
:1038E00000902068C06849F20C6188430099084341
:1038F0002168C8602068406920F44070A1690843CD
:103900002168486176492068884203D0754920685B
:10391000884203D1FEF7BEFF814602E0FEF7AAFF10
:103920008146E069B0F5004F6CD102206168A0FBD0
:10393000015003461920A9FB007001462A4638466B
:10394000FCF79EFC6421B0FBF1F04FEA001A022064
:103950006168A0FB01510B461920A9FB00712A46A2
:103960003846FCF78DFC834602206168A0FB0150BD
:1039700003461920A9FB00712A463846FCF780FC53
:103980006421B0FBF1F000EBC00101EB0010ABEBE8
:103990008000322101EBC0006421B0FBF1F000F0A7
:1039A000F8000AEB400A02206168A0FB01500346C0
:1039B0001920A9FB007001462A463846FCF760FC36
:1039C000834602206168A0FB015003461920A9FB31
:1039D00000712A463846FCF753FC6421B0FBF1F035
:1039E00000EBC00101EB0010ABEB8000322101EBDA
:1039F000C0006421B0FBF1F000F0070050442168E2
:103A000088606AE004206168A0FB01500346192029
:103A1000A9FB007001462A463846FCF731FC824675
:103A200004206168A0FB015003461920A9FB007027
:103A300001462A463846FCF723FC6421B0FBF1F02E
:103A400000EBC00101EB0010AAEB8000322101EB7A
:103A500000106421B0FBF1F000F0F00A042061686E
:103A6000A0FB017003461920A9FB00513A462846E5
:103A7000FCF706FC6421B0FBF1F00AEB001A04200D
:103A80006168A0FB01510B461920A9FB00712A4671
:103A90003846FCF7F5FB834604206168A0FB015023
:103AA00003461920A9FB007001462A463846FCF758
:103AB000E7FB6421B0FBF1F000EBC00101EB00106B
:103AC000ABEB8000322101EB00106421B0FBF1F080
:103AD00000F00F00504421688860BDE8F88F0000B6
:103AE000001001400014014010B5034699629A8508
:103AF000DA8500205864222083F84200186928B132
:103B00001868C06840F480701C68E06018684069FC
:103B100040F001001C6860611868C06840F0200037
:103B20001C68E060002010BD014691F8410021288A
:103B300028D18868B0F5805F0BD1086948B90A6A56
:103B40001088C0F308000B685860086A801C08627F
:103B500005E00B6A581C086218780B685860C88C1E
:103B6000401E80B2C88458B90868C06820F0800040
:103B70000B68D8600868C06840F040000B68D860E7
:103B8000002070470220FCE72DE9F84304460D466B
:103B900017469846089E31E0701C70B3FEF7C2FCD1
:103BA000A0EB0800B04200D816B90320BDE8F883A6
:103BB0002068C06800F00400F8B1802D1ED0402DB0
:103BC0001CD020680068C0F3C000B0B100BF002066
:103BD000009020680068009020684068009000BF56
:103BE00000BF2046FFF7A5FD0820606400BF00204D
:103BF00084F8400000BF0120D8E7FFE72068006894
:103C00002840A84201D1012000E00020B842C3D0E2
:103C10000020CBE710B50248FFF70EF910BD0000F9
:103C20005000002010B50248FFF706F910BD000053
:103C30009800002000BFFEE703B4019841000098FF
:103C400050EAC12018BF04204A0D18BF40F00100FF
:103C500040F2FF72B2EB515F08BF40F00200012852
:103C600008BF052002B0704702480068C0F3022078
:103C7000704700000CED00E010B5002804DB0A07D7
:103C8000130E054A135406E00A07140E034A00F007
:103C90000F031B1FD45410BD00E400E018ED00E03A
:103CA00010B5B94A2DED020B2DED0C8B82B00F999A
:103CB00021F000409FEDB6CB90422CDBA0F14053A9
:103CC0000E9AA3F17F631A430FD0B349884202DCF6
:103CD00016D10E98A0B19DED0E0B02B0BDEC0C8B71
:103CE00002B0BDE8104000F0FBBC0029C1BF9FED51
:103CF000AC0B02B0BDEC0C8B02B0C8BF10BD16E01F
:103D00000120FCF72AFC02B0BDEC0C8B02B0BDE830
:103D1000104000F0F9BCA44A9FEDA59B9FEDA6AB17
:103D200090425EDAA6499FEDA8CB814208DBB0EE57
:103D30004C0AF0EE6C0A02B0BDEC0C8B02B010BD68
:103D40009DED0E0B53EC102B51EC100B01F070FAA3
:103D500041EC180B9E480621B0EE480AF0EE680AC6
:103D6000784400F041FC53EC182B51EC100B01F09F
:103D70005FFA41EC1B0B9748B0EE480AF0EE680A78
:103D80000421784400F030FC53EC182B51EC100B5C
:103D900001F04EFA53EC192B01F002F841EC100B34
:103DA00051EC1B0B53EC102B01F0AEF841EC100B57
:103DB00053EC102B9DED0E0B51EC100B01F038FA6B
:103DC00053EC1A2B01F068FB9DED0E1B53EC112BED
:103DD00001F062FB53EC1C2B01F05EFB41EC100B7D
:103DE000A9E79FED7D8B9FED7EBB9DED0E0B00291E
:103DF00053EC192B51EC100B52DA00F0D1FF53ECBD
:103E0000182B01F015FA41EC180B77480621B0EE9B
:103E1000480AF0EE680A784400F0E6FB53EC182BF1
:103E200051EC100B01F004FA41EC1D0B6F48B0EEA1
:103E3000480AF0EE680A0421784400F0D5FB53EC00
:103E4000182B51EC100B01F0F3F953EC192B00F087
:103E5000A7FF41EC190B51EC180B00F015FF41ECDA
:103E6000180B53EC192B51EC1D0B01F04DF853ECD2
:103E7000182B01F0DDF953EC1A2B01F0E5FB41ECB6
:103E8000100B51EC180B53EC102B00F089FF53EC86
:103E90001B2B01F0CDF953EC1C2B01F0FDFA6DE06A
:103EA00001F0FAFA53EC182B01F0C2F941EC180BAF
:103EB00000F0EAFE41EC1A0B00208DED00AB009003
:103EC0009DED000B51EC1A0B53EC102B00F068FF2A
:103ED0009DED000B41EC1C0B53EC102B51EC100B27
:103EE00001F0A6F953EC182B01F0D6FA53EC1C2B79
:103EF00001F00AF841EC1C0B3D48B0EE480AF0EE28
:103F0000680A0621784400F06FFB53EC182B51EC43
:103F1000100B01F08DF941EC1D0B3648B0EE480A4C
:103F2000F0EE680A0421784400F05EFB53EC182B95
:103F300051EC100B01F07CF953EC192B00F030FF21
:103F400041EC100B51EC1D0B53EC102B00F0DCFF7F
:103F500053EC1A2B01F06CF953EC1C2B00F020FFF2
:103F600041EC100B53EC102B9DED000B51EC100BA2
:103F700000F016FF53EC1B2B01F05AF941EC100B2B
:103F8000D9E60000000000000000F03F0000000043
:103F9000182D4454FB2109400000F07F0000000070
:103FA00000000000000000000000E03F00000000F2
:103FB000000000000000F03F075C143326A6913C8F
:103FC0000000603C00000000182D4454FB21F93F24
:103FD0002C1C00003A1C0000000000000000E03F24
:103FE0000000000000000040761B0000841B000061
:103FF000881A0000961A000070B59B482DED020B40
:104000002DED068B079D25F00044A04218DC974853
:10401000844202DC0AD1069840B19DED060BBDEC4E
:10402000068B02B0BDE8704000F05ABB002DCCBF3B
:104030009FED8F0B9FED900BBDEC068B02B070BD1A
:104040008F48A04215DD8F48A042D8BF4FF0FF3403
:1040500058DD9DED060B51EC100BFFF7EDFD04282C
:1040600008BF00F061FB9DED060BBDEC068B02B0B6
:1040700070BD9DED060B51EC100B00F074FBCDE90B
:10408000060181489FED828BA0423CDD8248A04220
:104090001FDD00249FED82AB9DED060B53EC1A2B28
:1040A00051EC100B00F07CFE9DED060B41EC190B62
:1040B00053EC1A2B51EC100B01F0BAF853EC182BFF
:1040C00001F0C2FA53EC192B00F01EFFCDE90601F6
:1040D00049E09DED060B012453EC182B51EC100B1D
:1040E00000F05EFE9DED060B41EC190B53EC182B16
:1040F00051EC100B01F0A8FA53EC192B00F004FF5F
:10410000CDE906012FE06848A0421FDD02249FEDA3
:10411000689B9DED060B53EC192B51EC100B01F035
:1041200087F853EC182B00F03BFE9DED060B41EC9D
:10413000180B53EC192B51EC100B01F085FA53ECD2
:10414000182B00F0E1FECDE906010CE09DED060B19
:10415000032453EC102B9FED580B51EC100B00F087
:10416000D3FECDE906019DED060B53EC102B51EC6F
:10417000100B01F05DF841EC180B53EC182B01F01B
:1041800057F841EC190B4E480621B0EE490AF0EE03
:10419000690A784400F028FA53EC182B51EC100B04
:1041A00001F046F841EC180B4648B0EE490AF0EE33
:1041B000690A0521784400F017FA53EC192B51ECE9
:1041C000100B01F035F841EC100B51EC180B53ECCF
:1041D000102B002C0EDA00F0E3FD9DED061B53ECD6
:1041E000112B01F025F89DED061B53EC112B01F06E
:1041F00053F935E000F0D4FD9DED061B53EC112B77
:1042000001F016F841EC100B2F48784400EBC40085
:1042100090ED001B51EC100B53EC112B01F014FA34
:104220009DED061B53EC112B01F00EFA41EC100B27
:104230002648784400EBC40090ED001B51EC100BB5
:1042400053EC112B01F028F941EC100B002DA2BF0B
:10425000BDEC068B02B070BD51EC100B00F062FD9E
:1042600041EC100B01E70000000010440000F07F5B
:10427000182D4454FB21F93F182D4454FB21F9BF5C
:104280000000DC3F0000203E0000F33F0000000083
:10429000000000000000F03F0000E63F00000000CA
:1042A000000000000000004000800340000000000B
:1042B000000000000000F83F000000000000F0BF18
:1042C000B218000068180000F2170000AA170000DA
:1042D00070B56B4E2DED040B2DED028B82B0DDF829
:1042E0001CC0DDE905235C422CF000411C4341EA7F
:1042F000D474049D22F00040B44205D86C422C4393
:1043000040EAD474B4420BD99DED061B9DED040B1D
:1043100002B0BDEC028B04B0BDE8704000F0EAB919
:10432000ACF14054A4F17F641C430BD0022404EA96
:10433000AC7444EAD27405439FED538B9FED542B2C
:1043400007D015E09DED040B51EC100B00F003FAC3
:1043500042E0002C11BF012C9DED040B02B0BDEC1E
:10436000028B04BF04B070BD022C38D0032C3BD0AC
:104370000B439FED491B9FED4A0B0AD0B14218D168
:10438000B04209D121F0804120F080400791059092
:104390000FE0002A15DA10E0434B7B44002C08BFE5
:1043A00093ED000B0DD0012C10D0022C17D0032C54
:1043B0001AD0B0421DD1002A03DAB0EE410AF0EE65
:1043C000610A02B0BDEC028B04B070BD93ED000B2E
:1043D00051EC100B00F0A6FC41EC100BF1E7B0EE35
:1043E000480AF0EE680AECE7B0EE420AF0EE620A24
:1043F000E7E7401A00153C28C8BF8DED000B19DC1B
:10440000BCF1000FBEBF10F13C0F9FED290B8DEDED
:10441000000B0FDB9DED060B53EC102B9DED040BF9
:1044200051EC100B00F070FD00F09DF900F093F9D5
:10443000CDE90001002C08BF9DED000BC1D0012C7F
:1044400010D0022C9FED1C0B53EC102B9DED000B9C
:1044500051EC100B0DD001F0F7F853EC182B01F0D4
:10446000F3F8B9E7019880F0004001909DED000B52
:10447000A7E701F0E9F853EC182B01F00DF8ABE7D2
:104480000000F07F00000000182D4454FB2109407B
:10449000182D4454FB2109C0182D4454FB21F9BFA9
:1044A000182D4454FB21F93FDA16000000000000EB
:1044B0000000000000000000075C143326A6A13CA9
:1044C0002DED020B019820F0004001909DED000BB6
:1044D00002B0704710B52DED028BB0EE408A18EE99
:1044E000100A01F017FA01EE100A18EE100AB7EEE2
:1044F000000A78EE410A10F0004F4FF07F4010EEB6
:10450000901A12D0B1F13F4F24BF10EE901AB0EBC9
:10451000410F12D210EE901AB1F17C5F1CDD10EE4B
:10452000901AB0EB410F17D314E0B1F13F4F07D908
:1045300010EE901AB0EB410F02D331EE401A0BE0AF
:1045400010EE901AB1F17C5F06DB10EE901AB0EB22
:10455000410F01D331EE001A18EE100ABDEC028BA8
:1045600011EE101A61F31E0000EE100A10BD00B526
:104570002DED048BB0EE409AF0EE609A83B051ECD2
:10458000190B00F095FF41EC180B18EE100A18EE0D
:10459000901A8DED008B002818BF0120084320F0F1
:1045A0000040C0F17F6000F1E040C00F14D019EE70
:1045B000101A19EE900A8DED009B002918BF0121F9
:1045C000084320F00040C0F17F6000F1E040C00FE0
:1045D00004BF0120FBF7C1FFB0EE480A03B0F0EEC4
:1045E000680ABDEC048B00BD70B504462DED028B4E
:1045F0004D1E00EBC500B0EE408AF0EE608A90EDF3
:10460000000B35F0060017D053EC182B51EC100BB3
:1046100000F00EFE41EC100B6D1E04EBC50090ED9A
:10462000001B51EC100B53EC112B00F0B9FB41ECCB
:10463000100B35F00600E7D1022D36D0042D1CD02A
:10464000062D1CBFBDEC028B70BD53EC182B51EC3A
:10465000100B00F0EDFD94ED0A1B53EC112B00F054
:104660009FFB53EC182B00F0E3FD94ED081B53EC7B
:10467000112B00F095FB41EC100B53EC182B51EC77
:10468000100B00F0D5FD94ED061B53EC112B00F040
:1046900087FB53EC182B00F0CBFD94ED040B53EC8F
:1046A000102B00F07DFB41EC100B53EC182B51EC60
:1046B000100B00F0BDFD94ED021B53EC112B00F02C
:1046C0006FFB53EC182B00F0B3FD94ED001B53EC83
:1046D000112B00F065FBBDEC028B41EC100B70BDA3
:1046E00010B553EC102B51EC100B00F059FB41ECC2
:1046F000100B10BD10B553EC112B51EC100B00F04A
:104700004FFB41EC100B10BD9FED050B10B553ECAA
:10471000102B51EC100B00F0F7FB41EC100B10BD0F
:1047200000000000000000009FED050B10B553ECE9
:10473000102B51EC100B00F07BFD41EC100B10BD69
:10474000000000000000001030380A2801D20120CB
:1047500070470020704710B541EC100BFFF74CFC80
:1047600051EC100B10BD82B0CDE9000121F00040EA
:1047700001909DED000B02B051EC100B704770B52D
:104780002DED068BF0EE408AB0EE608AB0EE419AD5
:10479000054600240120A840401E86B2F4EEC88AD7
:1047A000F1EE10FA01D2F0EE488AF4EEC98AF1EE89
:1047B00010FA01DDF0EE498A38EEC80A79EE480AAF
:1047C000C0EE209A301B00EE100AF8EEC00A00EE90
:1047D000104AB8EEC00AB0EE40AA09EEA0AAB0EEA8
:1047E0004A0AFFF777FEBCEEC00A10EE100A80B24C
:1047F000BDEC068B70BD0000ADF54E7DFDF7A4FE4F
:10480000FEF72AFFFEF7A4FEFEF76AFEFEF7FEFEA5
:10481000FEF7E0FEFE48FDF7D6FC9FEDFE0B8DEDAA
:104820009C0B9FEDFE0B8DED9E0B01208DF88802F9
:1048300001218DF8B91211218DF8BA120021ADF8BD
:10484000C012B1EE0C0A8DEDB30A9FEDF60A8DEDA4
:10485000B40A9FEDF50A8DEDB50A9FEDF40A8DEDD2
:10486000B20A9FEDF30A8DEDB10A8DF8B80202216C
:104870008DF8F91212218DF8FA120021ADF800130B
:10488000B1EE0C0A8DEDC30A9FEDE60A8DEDC40A68
:104890009FEDE50A8DEDC50A9FEDE40A8DEDC20A94
:1048A0009FEDE30A8DEDC10A8DF8F8029FEDD90B5B
:1048B0008DED6A0B9FEDD90B8DED6C0B00208DF803
:1048C000C00103218DF8F11113218DF8F21100219F
:1048D000ADF8F811B1EE0C0A8DED810A9FEDD10A09
:1048E0008DED820A9FEDD00A8DED830A9FEDCF0AF0
:1048F0008DED800A9FEDCE0A8DED7F0A01208DF8A7
:10490000F00104218DF8311214218DF832120021AA
:10491000ADF83812B1EE0C0A8DED910A9FEDC10A87
:104920008DED920A9FEDC00A8DED930A9FEDBF0AAF
:104930008DED900A9FEDBE0A8DED8F0A8DF8300245
:104940009FEDB40B8DED380B9FEDB40B8DED3A0B55
:104950008DF8F80008218DF8291118218DF82A11F9
:104960000021ADF83011B1EE0C0A8DED4F0A9FED2C
:10497000AD0A8DED500A9FEDAC0A8DED510A9FED09
:10498000AB0A8DED4E0A9FEDAA0A8DED4D0A8DF80A
:10499000280107218DF8691117218DF86A1100216E
:1049A000ADF87011B1EE0C0A8DED5F0A9FED9D0A16
:1049B0008DED600A9FED9C0A8DED610A9FED9B0ACB
:1049C0008DED5E0A9FED9A0A8DED5D0A8DF8680106
:1049D0009FED900B8DED060B9FED900B8DED080B71
:1049E00000208DF8300006218DF8611016218DF819
:1049F00062100021ADF86810B1EE0C0A8DED1D0AB1
:104A00009FED880A8DED1E0A9FED870A8DED1F0A26
:104A10009FED860A8DED1C0A9FED850A8DED1B0A20
:104A200001208DF8600005218DF8A11015218DF869
:104A3000A2100021ADF8A810B1EE0C0A8DED2D0AE0
:104A40009FED780A8DED2E0A9FED770A8DED2F0AE6
:104A50009FED760A8DED2C0A9FED750A8DED2B0AE0
:104A60008DF8A0004FF4FA60FDF74EFCAEA968483F
:104A7000FCF750FD0A20FDF747FCBEA96448FCF78F
:104A800049FD0A20FDF740FC7CA96148FCF742FD86
:104A90000A20FDF739FC8CA95D48FCF73BFD0A2094
:104AA000FDF732FC4AA95A48FCF734FD0A20FDF70D
:104AB0002BFC5AA95648FCF72DFD0A20FDF724FCD3
:104AC00018A95348FCF726FD0A20FDF71DFC28A96C
:104AD0004F48FCF71FFD0A20FDF716FC012255493F
:104AE0005548FEF7F7FBCAE05448007800283CD050
:104AF0000020524908705248006800F08FFE9D91D6
:104B00009C905048006800F089FE9F919E904C4810
:104B1000006800F083FE6B916A904A48006800F0DC
:104B20007DFE6D916C90464890ED000AB1EE400A12
:104B300010EE100A00F072FECDE93801414800681D
:104B400000F06CFECDE93A013D4890ED000AB1EE6F
:104B5000400A10EE100A00F061FECDE90601394866
:104B6000006800F05BFECDE908010120FDF7CCFBF9
:104B700027499CA8FCF794FF0120FDF7C5FB2449B9
:104B80006AA8FCF78DFF0120FDF7BEFB204938A87D
:104B9000FCF786FF0120FDF7B7FB1D4906A8FCF7CF
:104BA0007FFF0120FDF7B0FB9DED9C1BB0EE410A9D
:104BB000F0EE610A51EC100B00F0C0F805909DED8D
:104BC0009E1BB0EE410AF0EE610A51EC100B00F0B2
:104BD000B5F80490A5208DF80400059C049DE0B272
:104BE0008DF80500200A8DF80600200C8DF80700CE
:104BF000200E8DF80800E8B28DF80900280A8DF81B
:104C00000A00280C8DF80B00280E8DF80C001BE014
:104C10002800002000000000000000009A999999E7
:104C20009999B9BFCDCCCC3DCDCC4C3D6F12833AD8
:104C3000000000000B0000205000002008000020B1
:104C400000000020040000200026012004E001A94B
:104C5000095C31448EB2401C0828F8DDF0B28DF8B2
:104C60000D005A208DF80E0064230B2201A9044880
:104C7000FEF7D4FB03499CA8FCF706FC00BF33E712
:104C8000500000209800002000B52DED048B83B06B
:104C900041EC190B00F00CFC41EC180B18EE100A5B
:104CA00018EE901A8DED008B002818BF01200843E4
:104CB00020F00040C0F17F6000F1E040C00F14D050
:104CC00019EE101A19EE900A8DED009B002918BFFD
:104CD0000121084320F00040C0F17F6000F1E04076
:104CE000C00F04BF0120FBF738FC51EC180B03B0D8
:104CF000BDEC048B00BD000010B500290AD0087877
:104D0000002807D005487844FBF78CFF002801D025
:104D1000002010BD0248784410BD00002E0E000097
:104D2000260E000081F00041704780F0004070477F
:104D300021F00041704720F00040704721F0004210
:104D4000A2F16052B2F5801F01F0004328BFD2F1FA
:104D50007F6C0BD95FEA001C43EAC20242EB507041
:104D600018BF704728BF20F001007047B2F5801FC0
:104D7000BCBF184670474FEA410C1CF5001F02D219
:104D8000084600F0C1BD70B500F0FCFA00000089D3
:104D9000FFF7F6BF4FF00040A0F58000704700001D
:104DA00010B591EA030F48BF83F0004300F154842B
:104DB000841A71EB030C05D2121943EB0C03001B90
:104DC00061EB0C01DFF824E14FEA1154A4EB135C12
:104DD0001EEA430F18BF9EEA445F73D023EA0E0316
:104DE000DCF1200E21EA045143F4801332D322FA7D
:104DF0000CFE10EB0E0023FA0CFE41EB0E01CCF181
:104E0000200E03FA0EFE10EB0E0051F10001B1F579
:104E1000801FCCF1200E32D201EB045112FA0EF2B7
:104E2000BDE8104058BF7047401C38BF5FEA4202DF
:104E300018BF7047002814BF20F0010041F10001A5
:104E40004FEA410313F5001F38BF7047A1F1C0417D
:104E500000F0E6BA012A43EB0302ACF1200CDCF1CE
:104E60001F0E32BF4FF0000E23FA0CF310EB0300BD
:104E700041EB0451B4EB115FD0D0A1EB045101F52B
:104E8000801149085FEA300001EB04510ED350F164
:104E9000000038BF12FA0EFE08D1BDE81040C9E785
:104EA000401C38BF5FEA4202CAD1C3E7BDE81040E8
:104EB0004FEA410313F5001F38BF7047A1F1C0410D
:104EC00000F0AEBA9EEA445F08D011EA5E0FBDE87A
:104ED000104004BF01F0004100207047BDE81040C1
:104EE00070B500F04FFA00BF64FBBE3E0000E0FF6B
:104EF000491058BFC1F140415B1058BFC3F1404356
:104F00008B42EFF3008070472DE9C04130B4DFF8E9
:104F1000A0C23CEA111418BF3CEA131400F0EC8064
:104F200081EA03051CEA111444EAD57418BF1CEA8F
:104F3000131500F0C780A4EB05044FF0004545EAC7
:104F4000C12145EAC32341EA505143EA525304F1D7
:104F50007F74994204F500344FEAC0204FEAC22220
:104F600008BF904200F09C804FEA13650FF2401694
:104F7000765D4FEA134506FB05F7C7F1807706FB20
:104F800007F74FEAD737A7FB03687642C8F58038A2
:104F9000A7FB06CE38BFA8F1010807FB08E64FF0D3
:104FA000000EA6FB028CE6FB03CEDCF1000CCEF17A
:104FB000004E38BFAEF1010EA6FB0C584FF00007B3
:104FC0004FF00005E6FB0E87A1FB08C6A0FB07CE4D
:104FD00016EB0E0645F10005E1FB076515F1E04E05
:104FE0007EBFA4F580345FEA46066D4116F1800766
:104FF00045F100054FEA17274FEA066647EA0567BD
:10500000A6F1DE46B6F1805F4FEA15251FD9384676
:1050100024F0010C05EBC471BCF1FE6F01EB0C1127
:1050200002D8F0BCBDE8008124425CBF01F5801EBF
:105030009EEAC47F02D4F0BCBDE80081244238D48B
:10504000F0BCA1F1C041BDE8004100F0E9B94FEA70
:10505000D22242EA43524FEAD323A7FB02864FEA09
:10506000D02040EA415007FB03661EEA0E0F4FEACC
:10507000D12105FB026658BFA6EB0056B6EB0056E1
:105080004FEA520E4EEAC37E18EB0E0E56EB530E4D
:10509000BDD518EB02085E417F1C55F10005B6E74F
:1050A0004FF480154FF000074FF000064FF0000856
:1050B000ADE7F0BC4FF0000001F1C04101F000414C
:1050C000BDE8008111EA0C1F0CEA131500D00CE0BA
:1050D00013EA0C1F00F025804FF00000F0BC81EABD
:1050E000030101F00041BDE80081F0BCBDE80041D2
:1050F00081EA030100F094B9F0BCBDE8004170B54D
:1051000000F040F9097EFC3E00F007B881EA030197
:105110004FF0000001F00041704781EA030100F008
:105120007FB9F0BCBDE800414FF000002149704755
:10513000FFFDFBF9F7F5F4F2F0EEEDEBE9E8E6E45C
:10514000E3E1E0DEDDDBDAD8D7D5D4D3D1D0CFCDE3
:10515000CCCBCAC8C7C6C5C4C2C1C0BFBEBDBCBB1C
:10516000BAB9B8B7B6B5B4B3B2B1B0AFAEADACAB17
:10517000AAA9A8A8A7A6A5A4A3A3A2A1A09F9F9EF1
:105180009D9C9C9B9A9999989797969595949393A3
:10519000929191908F8F8E8E8D8C8C8B8B8A89893A
:1051A00088888787868585848483838282818180BD
:1051B0000000FF070000F87F51EA030C17D41CF52C
:1051C000801F58BFBCF5801F00F10680994218BFB0
:1051D000704708BF9042704707D711F5801F58BF2E
:1051E00013F5801F19D499427047894270471CF506
:1051F000801F08D5BCF5801FF7D58B4218BF7047BC
:1052000008BF824270474FF4001C1CEB410F38BFAF
:105210001CEB430F01D28B42704770B500F0B2F81F
:10522000922449004FF000514FF08053FFF760BEC9
:10523000DFF848C170B51CEA111E1EBF1CEA131529
:105240009EEA0C0F95EA0C0F00F06F8081EA0304D0
:1052500023EA4C134EEAD47E21EA4C1141F480112A
:1052600043F48013AE44A1FB024CA0FB0365AEF1F6
:105270007F7E361955EB0C05A1FB034C4CF1000366
:10528000A0FB021C16EB0C06654153F1000309421A
:1052900018BF46F0010613F4007F0BD14FEA03312B
:1052A0004FEA0530340341EA155140EA16506FF0D9
:1052B00003020AE04FEAC3214FEAC520F40241EAA3
:1052C000555140EA56506FF0020202EB2E4201EBBC
:1052D000025585EACE710AD05FEA440C18BF24F06B
:1052E000004450F1000041F1000120EAD47040F286
:1052F000FE7C624500D270BDA84214BF4FF08044CE
:105300004FF04044002E08BF0024BEF1806FA8BFBC
:10531000A1F1C041BDE8704080F282804FF00000F2
:1053200001F1C04101F0004170479EEA0C0F0CEA08
:10533000131518BF95EA0C0F06D04FF0000081EA54
:10534000030E0EF0004170BD00F01CF88900013E14
:1053500000F007B800F009B84FEA430C5FEA5C5C64
:1053600008D081EA030100F05BB84FEA410C5FEA24
:105370005C5CF6D14FF00000014970470000FF0768
:105380000000F87F0EF1020E2EF0030E5EF8046BA3
:10539000364205D4012A43EB030515F5001F12D848
:1053A000012841EB010C1CF5001F0CD80ED14FEA6F
:1053B000D17C15F5001F0CEB4C0C0CF1020C08BF56
:1053C0004CEBD37C04E04FF0080C01E04FEAD37CB7
:1053D0000CEB4C0526FA05F606F00706B6F1040CB0
:1053E00006D20EEB860CBDE870404CF0010C604715
:1053F000DFE80CF0090B02024FF000414FF0000013
:10540000A1F5002170BD19461046012851EB010499
:1054100018BFD4F5001484BF002001F0004170BD16
:105420000808A0F500114FEA3101704753EA010C5A
:1054300017D41CF5801F58BFBCF5801F00F10680F3
:105440008B4218BF704708BF8242704707D713F5D9
:10545000801F58BF11F5801F19D48B4270479B42A3
:1054600070471CF5801F08D5BCF5801FF7D5994201
:1054700018BF704708BF904270474FF4001C1CEBE8
:10548000430F38BF1CEB410F01D2994270470FB454
:105490000CBC03BCFFF7C1BE91EA030F10B581F04D
:1054A00000413FF585AC83F0004300F0D5B8000023
:1054B0002DE9F04101F5801CBCF5001FC0F2A98068
:1054C0004FEA115C21EA0C510CF1FD0C41F4801102
:1054D0005FEA5C0C0CF5C07C01D34000494130A46C
:1054E000890241EA905187028E0E0A0CA45D04FBEA
:1054F00004F602FB06F6C6F14046A4FB0662F60D72
:1055000046EA422606FB06F4A4FB01235242C3F1FD
:10551000404338BF5B1EA6FB02420024E6FB032487
:10552000D20B42EA4446A6FB0623A1FB02E2A3FB00
:1055300007E4E3FB61426442C2F1404E38BFAEF182
:10554000010EA6FB04234FF00002E6FB0E32A2FB85
:1055500003463400E2FB6264A1FB06E6A4FB07E815
:10556000E4FB61687642C8F1405838BFA8F10108F1
:10557000A2FB06E4A3FB08E5E2FB6854A1FB05E6F9
:10558000A7FB04E8E1FB648618F1200556F100064C
:10559000A809A8F11B08B10908F03F08B8F10A0FE3
:1055A00040EA86601CD901EB0C51BDE8F08100BFD8
:1055B000FCF5EEE8E2DDD8D3CFCBC7C3C0BDB9B6AA
:1055C000B4B1AEACA9A7A5A3A19F9D9B9A989695AF
:1055D0009392908F8D8C8B89888786858483828136
:1055E000A0FB006800FB01F208EB4208B8EB87283B
:1055F00007D5341858EB0104D5D5401C51F10001F2
:10560000D1E7341A78EB0104CDD4401E71F10001CA
:10561000C9E75FEA4C0C5FEA9C5C0DD105D34FF003
:10562000000001F00041BDE8F081BDE8F04170B537
:10563000FFF7A8FE6DDBFFBEBDE8F0414FF00000B4
:10564000004970470000F87F10B591EA030F48BF8A
:1056500083F000433FF5ACAB841A71EB030C07D227
:1056600012198CF0004C43EB0C03001B61EB0C0196
:10567000DFF8A4E14FEA1154A4EB135C1EEA430FD8
:1056800018BF9EEA445F00F0B08023EA6E035242E6
:1056900021EA0451C3EB6E0338BF5B1EDCF1200E20
:1056A00025D322FA0CFE10EB0E0043FA0CFE41EB60
:1056B0000E01CCF1200E03FA0EFE10EB0E0051F19C
:1056C0000001CCF1200E29D412FA0EF201EB0451A4
:1056D000BDE8104058BF7047401C1CBFB2F1004FDE
:1056E000704700280CBF491C20F00100704712EBE6
:1056F000020E43EB030218BF4FF0010E4EEA4202C6
:10570000ACF1200CDCF11E0E54D943FA0CFE10EB68
:105710000E0051F1FF31CCF11E0ED5D50EF1010E68
:1057200012FA0EFE404141EB010101EB445C5FEADD
:105730005C5C10D910EBDE7001EB045138BFBEF198
:10574000004FBDE8104018BF704700280CBF491C2F
:1057500020F00100704730D24FEAD42C11F500112F
:1057600024F400641BD0B1FA81F20B3AA41AA41EEF
:10577000D2F12003914030FA03F31943904001EB3A
:10578000CC71002C01EB0451BDE81040A8BF70475C
:1057900001F1C0414FF0000001F000417047B0FA44
:1057A00080F310FA03F100D110BDE41A173C48054C
:1057B000C90AE4E701EB045110BD491001EB0451A3
:1057C000BDE810404FEA300002E04FF000017047A2
:1057D0004A0008BF0042F8D0B2F5001F28BF70474A
:1057E00001F000414FF0000070479EEA445F07D08F
:1057F00011EA5E0FBDE8104004BF00210020704791
:10580000BDE8104070B5FFF7BDFD00BF40DFF63EBC
:1058100083F00041104670470000E0FF43004FEA6C
:10582000D30C4FEA3C0C43401FBF40070CF16051C2
:1058300013F0FE4F70471CF0006F03D100200CF0F6
:10584000004170470CF0004343EA507010B540EA45
:10585000CC0000F00EF800BF000000924FEA0001FB
:10586000FFF7DEBD4FF000414FF00000A1F5002131
:1058700070470EF1020E2EF0030E5EF8044B244228
:1058800004D44FEA4102B2F17F4F11D84FEA4003EE
:10589000B3F17F4F0CD80ED14FEAD07CB2F17F4FDD
:1058A0000CEB4C0C0CF1020C08BF4CEBD17C04E06F
:1058B0004FF0080C01E04FEAD17C0CEB4C0324FACA
:1058C00003F404F00704B4F1040C06D20EEB840CCC
:1058D000BDE810404CF0010C6047DFE80CF0070811
:1058E00002024FF00040A0F5800010BD08464200C3
:1058F00018BFD2F1807288BF00F0004010BD4FF099
:105900004070E1EE100A7047FF2141EAD050C00517
:10591000704700005FEA400C5FEA1C6CBCF17F033B
:1059200014D4D3F1170240F31C804FF0010C0CFA91
:1059300002FCACF101030340B3EB5C0220EA03007C
:1059400008BF10EA0C0F88BF60447047B3F1FF3FF7
:1059500028BF5FEA002C00F0004088BF40F07E5076
:105960007047BCF1FF0FB8BF704710B5FFF781FF5C
:1059700040DBB6BEFAF7D0BE000000000000000019
:1059800001020304060708090000000001020304E5
:10599000555555555555C53F7D6FEB0312D6D4BFB0
:1059A0005544880E55C1C93F3B8F68B52882A4BFB6
:1059B00088B20175E0EF493F09F7FD0DE13D023F77
:1059C0004B2D8A1C273A03C0C88A599CE52A0040FF
:1059D00059018D1B6C06E6BF82922EB1C5B8B33F4C
:1059E0004FBB610567ACDD3F182D4454FB21E93FF7
:1059F0009BF681D20B73EF3F182D4454FB21F93FE6
:105A0000E2652F227F2B7A3C075C143326A6813C6B
:105A1000BDCBF07A8807703C075C143326A6913C16
:105A2000C4EB98999999C9BF711623FEC671BCBF82
:105A30006D9A74AFF2B0B3BF9AFDDE522DDEADBFEA
:105A40002F6C6A2C44B4A2BF0D5555555555D53F02
:105A5000FF8300922449C23F6E204CC5CD45B73F1D
:105A6000513DD0A0660DB13FEB0D76244B7BA93F95
:105A700011DA22E33AAD903F000000000000000080
:105A800002400000000000A00000000005400000EF
:105A9000000000C8000000000C4000000000409C16
:105AA00000000000194000000020BCBE0000000003
:105AB00034400000BFC91B8E00000004B540000048
:105AC000504BCFD06607E2CF010000006C410000D0
:105AD0003E8251AADFEEA73401000000D942000047
